{
  "_format": "hh-sol-artifact-1",
  "contractName": "SingleSwapToken",
  "sourceName": "contracts/SwapToken.sol",
  "abi": [
    {
      "inputs": [],
      "name": "DAI",
      "outputs": [
        {
          "internalType": "address",
          "name": "",
          "type": "address"
        }
      ],
      "stateMutability": "view",
      "type": "function"
    },
    {
      "inputs": [],
      "name": "USDC",
      "outputs": [
        {
          "internalType": "address",
          "name": "",
          "type": "address"
        }
      ],
      "stateMutability": "view",
      "type": "function"
    },
    {
      "inputs": [],
      "name": "WETH9",
      "outputs": [
        {
          "internalType": "address",
          "name": "",
          "type": "address"
        }
      ],
      "stateMutability": "view",
      "type": "function"
    },
    {
      "inputs": [
        {
          "internalType": "uint256",
          "name": "amountIn",
          "type": "uint256"
        }
      ],
      "name": "swapExactInputSingle",
      "outputs": [
        {
          "internalType": "uint256",
          "name": "amountOut",
          "type": "uint256"
        }
      ],
      "stateMutability": "nonpayable",
      "type": "function"
    },
    {
      "inputs": [
        {
          "internalType": "uint256",
          "name": "amountOut",
          "type": "uint256"
        },
        {
          "internalType": "uint256",
          "name": "amountInMaximum",
          "type": "uint256"
        }
      ],
      "name": "swapExactOutputSingle",
      "outputs": [
        {
          "internalType": "uint256",
          "name": "amountIn",
          "type": "uint256"
        }
      ],
      "stateMutability": "nonpayable",
      "type": "function"
    },
    {
      "inputs": [],
      "name": "swapRouter",
      "outputs": [
        {
          "internalType": "contract ISwapRouter",
          "name": "",
          "type": "address"
        }
      ],
      "stateMutability": "view",
      "type": "function"
    }
  ],
  "bytecode": "0x608060405234801561001057600080fd5b5061105c806100206000396000f3fe608060405234801561001057600080fd5b50600436106100625760003560e01c80634aa4a4fc1461006757806373bd43ad1461008557806389a30271146100b5578063c31c9c07146100d3578063c4b69a18146100f1578063e0bab4c414610121575b600080fd5b61006f61013f565b60405161007c91906109b1565b60405180910390f35b61009f600480360381019061009a9190610a07565b610157565b6040516100ac9190610a43565b60405180910390f35b6100bd61030b565b6040516100ca91906109b1565b60405180910390f35b6100db610323565b6040516100e89190610abd565b60405180910390f35b61010b60048036038101906101069190610ad8565b61033b565b6040516101189190610a43565b60405180910390f35b610129610556565b60405161013691906109b1565b60405180910390f35b73c02aaa39b223fe8d0a0e5c4f27ead9083c756cc281565b600061017973c02aaa39b223fe8d0a0e5c4f27ead9083c756cc233308561056e565b6101ac73c02aaa39b223fe8d0a0e5c4f27ead9083c756cc273e592427a0aece92de3edee1f18e0157c05861564846106c6565b600060405180610100016040528073c02aaa39b223fe8d0a0e5c4f27ead9083c756cc273ffffffffffffffffffffffffffffffffffffffff168152602001736b175474e89094c44da98b954eedeac495271d0f73ffffffffffffffffffffffffffffffffffffffff168152602001610bb862ffffff1681526020013373ffffffffffffffffffffffffffffffffffffffff16815260200142815260200184815260200160008152602001600073ffffffffffffffffffffffffffffffffffffffff16815250905073e592427a0aece92de3edee1f18e0157c0586156473ffffffffffffffffffffffffffffffffffffffff1663414bf389826040518263ffffffff1660e01b81526004016102c09190610c05565b6020604051808303816000875af11580156102df573d6000803e3d6000fd5b505050506040513d601f19601f820116820180604052508101906103039190610c36565b915050919050565b73a0b86991c6218b36c1d19d4a2e9eb0ce3606eb4881565b73e592427a0aece92de3edee1f18e0157c0586156481565b600061035d73c02aaa39b223fe8d0a0e5c4f27ead9083c756cc233308561056e565b61039073c02aaa39b223fe8d0a0e5c4f27ead9083c756cc273e592427a0aece92de3edee1f18e0157c05861564846106c6565b600060405180610100016040528073c02aaa39b223fe8d0a0e5c4f27ead9083c756cc273ffffffffffffffffffffffffffffffffffffffff168152602001736b175474e89094c44da98b954eedeac495271d0f73ffffffffffffffffffffffffffffffffffffffff168152602001610bb862ffffff1681526020013373ffffffffffffffffffffffffffffffffffffffff168152602001428152602001858152602001848152602001600073ffffffffffffffffffffffffffffffffffffffff16815250905073e592427a0aece92de3edee1f18e0157c0586156473ffffffffffffffffffffffffffffffffffffffff1663db3e2198826040518263ffffffff1660e01b81526004016104a39190610d05565b6020604051808303816000875af11580156104c2573d6000803e3d6000fd5b505050506040513d601f19601f820116820180604052508101906104e69190610c36565b91508282101561054f5761052473c02aaa39b223fe8d0a0e5c4f27ead9083c756cc273e592427a0aece92de3edee1f18e0157c0586156460006106c6565b61054e73c02aaa39b223fe8d0a0e5c4f27ead9083c756cc23384866105499190610d50565b61081b565b5b5092915050565b736b175474e89094c44da98b954eedeac495271d0f81565b6000808573ffffffffffffffffffffffffffffffffffffffff166323b872dd60e01b8686866040516024016105a593929190610d84565b604051602081830303815290604052907bffffffffffffffffffffffffffffffffffffffffffffffffffffffff19166020820180517bffffffffffffffffffffffffffffffffffffffffffffffffffffffff838183161783525050505060405161060f9190610e2c565b6000604051808303816000865af19150503d806000811461064c576040519150601f19603f3d011682016040523d82523d6000602084013e610651565b606091505b509150915081801561067f575060008151148061067e57508080602001905181019061067d9190610e7b565b5b5b6106be576040517f08c379a00000000000000000000000000000000000000000000000000000000081526004016106b590610f05565b60405180910390fd5b505050505050565b6000808473ffffffffffffffffffffffffffffffffffffffff1663095ea7b360e01b85856040516024016106fb929190610f25565b604051602081830303815290604052907bffffffffffffffffffffffffffffffffffffffffffffffffffffffff19166020820180517bffffffffffffffffffffffffffffffffffffffffffffffffffffffff83818316178352505050506040516107659190610e2c565b6000604051808303816000865af19150503d80600081146107a2576040519150601f19603f3d011682016040523d82523d6000602084013e6107a7565b606091505b50915091508180156107d557506000815114806107d45750808060200190518101906107d39190610e7b565b5b5b610814576040517f08c379a000000000000000000000000000000000000000000000000000000000815260040161080b90610f9a565b60405180910390fd5b5050505050565b6000808473ffffffffffffffffffffffffffffffffffffffff1663a9059cbb60e01b8585604051602401610850929190610f25565b604051602081830303815290604052907bffffffffffffffffffffffffffffffffffffffffffffffffffffffff19166020820180517bffffffffffffffffffffffffffffffffffffffffffffffffffffffff83818316178352505050506040516108ba9190610e2c565b6000604051808303816000865af19150503d80600081146108f7576040519150601f19603f3d011682016040523d82523d6000602084013e6108fc565b606091505b509150915081801561092a57506000815114806109295750808060200190518101906109289190610e7b565b5b5b610969576040517f08c379a000000000000000000000000000000000000000000000000000000000815260040161096090611006565b60405180910390fd5b5050505050565b600073ffffffffffffffffffffffffffffffffffffffff82169050919050565b600061099b82610970565b9050919050565b6109ab81610990565b82525050565b60006020820190506109c660008301846109a2565b92915050565b600080fd5b6000819050919050565b6109e4816109d1565b81146109ef57600080fd5b50565b600081359050610a01816109db565b92915050565b600060208284031215610a1d57610a1c6109cc565b5b6000610a2b848285016109f2565b91505092915050565b610a3d816109d1565b82525050565b6000602082019050610a586000830184610a34565b92915050565b6000819050919050565b6000610a83610a7e610a7984610970565b610a5e565b610970565b9050919050565b6000610a9582610a68565b9050919050565b6000610aa782610a8a565b9050919050565b610ab781610a9c565b82525050565b6000602082019050610ad26000830184610aae565b92915050565b60008060408385031215610aef57610aee6109cc565b5b6000610afd858286016109f2565b9250506020610b0e858286016109f2565b9150509250929050565b610b2181610990565b82525050565b600062ffffff82169050919050565b610b3f81610b27565b82525050565b610b4e816109d1565b82525050565b610b5d81610970565b82525050565b61010082016000820151610b7a6000850182610b18565b506020820151610b8d6020850182610b18565b506040820151610ba06040850182610b36565b506060820151610bb36060850182610b18565b506080820151610bc66080850182610b45565b5060a0820151610bd960a0850182610b45565b5060c0820151610bec60c0850182610b45565b5060e0820151610bff60e0850182610b54565b50505050565b600061010082019050610c1b6000830184610b63565b92915050565b600081519050610c30816109db565b92915050565b600060208284031215610c4c57610c4b6109cc565b5b6000610c5a84828501610c21565b91505092915050565b61010082016000820151610c7a6000850182610b18565b506020820151610c8d6020850182610b18565b506040820151610ca06040850182610b36565b506060820151610cb36060850182610b18565b506080820151610cc66080850182610b45565b5060a0820151610cd960a0850182610b45565b5060c0820151610cec60c0850182610b45565b5060e0820151610cff60e0850182610b54565b50505050565b600061010082019050610d1b6000830184610c63565b92915050565b7f4e487b7100000000000000000000000000000000000000000000000000000000600052601160045260246000fd5b6000610d5b826109d1565b9150610d66836109d1565b9250828203905081811115610d7e57610d7d610d21565b5b92915050565b6000606082019050610d9960008301866109a2565b610da660208301856109a2565b610db36040830184610a34565b949350505050565b600081519050919050565b600081905092915050565b60005b83811015610def578082015181840152602081019050610dd4565b60008484015250505050565b6000610e0682610dbb565b610e108185610dc6565b9350610e20818560208601610dd1565b80840191505092915050565b6000610e388284610dfb565b915081905092915050565b60008115159050919050565b610e5881610e43565b8114610e6357600080fd5b50565b600081519050610e7581610e4f565b92915050565b600060208284031215610e9157610e906109cc565b5b6000610e9f84828501610e66565b91505092915050565b600082825260208201905092915050565b7f5354460000000000000000000000000000000000000000000000000000000000600082015250565b6000610eef600383610ea8565b9150610efa82610eb9565b602082019050919050565b60006020820190508181036000830152610f1e81610ee2565b9050919050565b6000604082019050610f3a60008301856109a2565b610f476020830184610a34565b9392505050565b7f5341000000000000000000000000000000000000000000000000000000000000600082015250565b6000610f84600283610ea8565b9150610f8f82610f4e565b602082019050919050565b60006020820190508181036000830152610fb381610f77565b9050919050565b7f5354000000000000000000000000000000000000000000000000000000000000600082015250565b6000610ff0600283610ea8565b9150610ffb82610fba565b602082019050919050565b6000602082019050818103600083015261101f81610fe3565b905091905056fea264697066735822122039f71b3917f8a9f5cd9c1a13aa7c083ec773128a9d0d073eb5d828952ebd137c64736f6c63430008110033",
  "linkReferences": {},
  "deployedLinkReferences": {}
}