{
  "_format": "hh-sol-artifact-1",
  "contractName": "SwapMultiHop",
  "sourceName": "contracts/SwapMultiHop.sol",
  "abi": [
    {
      "inputs": [],
      "name": "DAI",
      "outputs": [
        {
          "internalType": "address",
          "name": "",
          "type": "address"
        }
      ],
      "stateMutability": "view",
      "type": "function"
    },
    {
      "inputs": [],
      "name": "USDC",
      "outputs": [
        {
          "internalType": "address",
          "name": "",
          "type": "address"
        }
      ],
      "stateMutability": "view",
      "type": "function"
    },
    {
      "inputs": [],
      "name": "WETH9",
      "outputs": [
        {
          "internalType": "address",
          "name": "",
          "type": "address"
        }
      ],
      "stateMutability": "view",
      "type": "function"
    },
    {
      "inputs": [
        {
          "internalType": "uint256",
          "name": "amountIn",
          "type": "uint256"
        }
      ],
      "name": "swapExactInputMultihop",
      "outputs": [
        {
          "internalType": "uint256",
          "name": "amountOut",
          "type": "uint256"
        }
      ],
      "stateMutability": "nonpayable",
      "type": "function"
    },
    {
      "inputs": [
        {
          "internalType": "uint256",
          "name": "amountOut",
          "type": "uint256"
        },
        {
          "internalType": "uint256",
          "name": "amountInMaximum",
          "type": "uint256"
        }
      ],
      "name": "swapExactOutputMultihop",
      "outputs": [
        {
          "internalType": "uint256",
          "name": "amountIn",
          "type": "uint256"
        }
      ],
      "stateMutability": "nonpayable",
      "type": "function"
    },
    {
      "inputs": [],
      "name": "swapRouter",
      "outputs": [
        {
          "internalType": "contract ISwapRouter",
          "name": "",
          "type": "address"
        }
      ],
      "stateMutability": "view",
      "type": "function"
    }
  ],
  "bytecode": "0x608060405234801561001057600080fd5b50610f2c806100206000396000f3fe608060405234801561001057600080fd5b50600436106100625760003560e01c80633b85cf6a146100675780634aa4a4fc1461009757806389a30271146100b5578063c31c9c07146100d3578063e0bab4c4146100f1578063edd835571461010f575b600080fd5b610081600480360381019061007c9190610819565b61013f565b60405161008e9190610868565b60405180910390f35b61009f61033c565b6040516100ac91906108c4565b60405180910390f35b6100bd610354565b6040516100ca91906108c4565b60405180910390f35b6100db61036c565b6040516100e8919061093e565b60405180910390f35b6100f9610384565b60405161010691906108c4565b60405180910390f35b61012960048036038101906101249190610959565b61039c565b6040516101369190610868565b60405180910390f35b600061016173c02aaa39b223fe8d0a0e5c4f27ead9083c756cc2333085610531565b61019473c02aaa39b223fe8d0a0e5c4f27ead9083c756cc273e592427a0aece92de3edee1f18e0157c0586156484610689565b60006040518060a00160405280736b175474e89094c44da98b954eedeac495271d0f606473a0b86991c6218b36c1d19d4a2e9eb0ce3606eb48610bb873c02aaa39b223fe8d0a0e5c4f27ead9083c756cc26040516020016101f9959493929190610a13565b60405160208183030381529060405281526020013373ffffffffffffffffffffffffffffffffffffffff16815260200142815260200185815260200184815250905073e592427a0aece92de3edee1f18e0157c0586156473ffffffffffffffffffffffffffffffffffffffff1663f28c0498826040518263ffffffff1660e01b81526004016102889190610b96565b6020604051808303816000875af11580156102a7573d6000803e3d6000fd5b505050506040513d601f19601f820116820180604052508101906102cb9190610bcd565b9150828210156103355761030973c02aaa39b223fe8d0a0e5c4f27ead9083c756cc273e592427a0aece92de3edee1f18e0157c058615646000610689565b61033473c02aaa39b223fe8d0a0e5c4f27ead9083c756cc23033858761032f9190610c29565b610531565b5b5092915050565b73c02aaa39b223fe8d0a0e5c4f27ead9083c756cc281565b73a0b86991c6218b36c1d19d4a2e9eb0ce3606eb4881565b73e592427a0aece92de3edee1f18e0157c0586156481565b736b175474e89094c44da98b954eedeac495271d0f81565b60006103be73c02aaa39b223fe8d0a0e5c4f27ead9083c756cc2333085610531565b6103f173c02aaa39b223fe8d0a0e5c4f27ead9083c756cc273e592427a0aece92de3edee1f18e0157c0586156484610689565b60006040518060a0016040528073c02aaa39b223fe8d0a0e5c4f27ead9083c756cc2610bb873a0b86991c6218b36c1d19d4a2e9eb0ce3606eb486064736b175474e89094c44da98b954eedeac495271d0f604051602001610456959493929190610a13565b60405160208183030381529060405281526020013373ffffffffffffffffffffffffffffffffffffffff1681526020014281526020018481526020016000815250905073e592427a0aece92de3edee1f18e0157c0586156473ffffffffffffffffffffffffffffffffffffffff1663c04b8d59826040518263ffffffff1660e01b81526004016104e69190610cd3565b6020604051808303816000875af1158015610505573d6000803e3d6000fd5b505050506040513d601f19601f820116820180604052508101906105299190610bcd565b915050919050565b6000808573ffffffffffffffffffffffffffffffffffffffff166323b872dd60e01b86868660405160240161056893929190610cf5565b604051602081830303815290604052907bffffffffffffffffffffffffffffffffffffffffffffffffffffffff19166020820180517bffffffffffffffffffffffffffffffffffffffffffffffffffffffff83818316178352505050506040516105d29190610d68565b6000604051808303816000865af19150503d806000811461060f576040519150601f19603f3d011682016040523d82523d6000602084013e610614565b606091505b509150915081801561064257506000815114806106415750808060200190518101906106409190610db7565b5b5b610681576040517f08c379a000000000000000000000000000000000000000000000000000000000815260040161067890610e41565b60405180910390fd5b505050505050565b6000808473ffffffffffffffffffffffffffffffffffffffff1663095ea7b360e01b85856040516024016106be929190610e61565b604051602081830303815290604052907bffffffffffffffffffffffffffffffffffffffffffffffffffffffff19166020820180517bffffffffffffffffffffffffffffffffffffffffffffffffffffffff83818316178352505050506040516107289190610d68565b6000604051808303816000865af19150503d8060008114610765576040519150601f19603f3d011682016040523d82523d6000602084013e61076a565b606091505b509150915081801561079857506000815114806107975750808060200190518101906107969190610db7565b5b5b6107d7576040517f08c379a00000000000000000000000000000000000000000000000000000000081526004016107ce90610ed6565b60405180910390fd5b5050505050565b600080fd5b6000819050919050565b6107f6816107e3565b811461080157600080fd5b50565b600081359050610813816107ed565b92915050565b600080604083850312156108305761082f6107de565b5b600061083e85828601610804565b925050602061084f85828601610804565b9150509250929050565b610862816107e3565b82525050565b600060208201905061087d6000830184610859565b92915050565b600073ffffffffffffffffffffffffffffffffffffffff82169050919050565b60006108ae82610883565b9050919050565b6108be816108a3565b82525050565b60006020820190506108d960008301846108b5565b92915050565b6000819050919050565b60006109046108ff6108fa84610883565b6108df565b610883565b9050919050565b6000610916826108e9565b9050919050565b60006109288261090b565b9050919050565b6109388161091d565b82525050565b6000602082019050610953600083018461092f565b92915050565b60006020828403121561096f5761096e6107de565b5b600061097d84828501610804565b91505092915050565b60008160601b9050919050565b600061099e82610986565b9050919050565b60006109b082610993565b9050919050565b6109c86109c3826108a3565b6109a5565b82525050565b600062ffffff82169050919050565b60008160e81b9050919050565b60006109f5826109dd565b9050919050565b610a0d610a08826109ce565b6109ea565b82525050565b6000610a1f82886109b7565b601482019150610a2f82876109fc565b600382019150610a3f82866109b7565b601482019150610a4f82856109fc565b600382019150610a5f82846109b7565b6014820191508190509695505050505050565b600081519050919050565b600082825260208201905092915050565b60005b83811015610aac578082015181840152602081019050610a91565b60008484015250505050565b6000601f19601f8301169050919050565b6000610ad482610a72565b610ade8185610a7d565b9350610aee818560208601610a8e565b610af781610ab8565b840191505092915050565b610b0b816108a3565b82525050565b610b1a816107e3565b82525050565b600060a0830160008301518482036000860152610b3d8282610ac9565b9150506020830151610b526020860182610b02565b506040830151610b656040860182610b11565b506060830151610b786060860182610b11565b506080830151610b8b6080860182610b11565b508091505092915050565b60006020820190508181036000830152610bb08184610b20565b905092915050565b600081519050610bc7816107ed565b92915050565b600060208284031215610be357610be26107de565b5b6000610bf184828501610bb8565b91505092915050565b7f4e487b7100000000000000000000000000000000000000000000000000000000600052601160045260246000fd5b6000610c34826107e3565b9150610c3f836107e3565b9250828203905081811115610c5757610c56610bfa565b5b92915050565b600060a0830160008301518482036000860152610c7a8282610ac9565b9150506020830151610c8f6020860182610b02565b506040830151610ca26040860182610b11565b506060830151610cb56060860182610b11565b506080830151610cc86080860182610b11565b508091505092915050565b60006020820190508181036000830152610ced8184610c5d565b905092915050565b6000606082019050610d0a60008301866108b5565b610d1760208301856108b5565b610d246040830184610859565b949350505050565b600081905092915050565b6000610d4282610a72565b610d4c8185610d2c565b9350610d5c818560208601610a8e565b80840191505092915050565b6000610d748284610d37565b915081905092915050565b60008115159050919050565b610d9481610d7f565b8114610d9f57600080fd5b50565b600081519050610db181610d8b565b92915050565b600060208284031215610dcd57610dcc6107de565b5b6000610ddb84828501610da2565b91505092915050565b600082825260208201905092915050565b7f5354460000000000000000000000000000000000000000000000000000000000600082015250565b6000610e2b600383610de4565b9150610e3682610df5565b602082019050919050565b60006020820190508181036000830152610e5a81610e1e565b9050919050565b6000604082019050610e7660008301856108b5565b610e836020830184610859565b9392505050565b7f5341000000000000000000000000000000000000000000000000000000000000600082015250565b6000610ec0600283610de4565b9150610ecb82610e8a565b602082019050919050565b60006020820190508181036000830152610eef81610eb3565b905091905056fea2646970667358221220789cc91d79570515057a4b437ba4f6d59b0fa87976fa384581543b536cd611a764736f6c63430008110033",
  "linkReferences": {},
  "deployedLinkReferences": {}
}