{
  "_format": "hh-sol-artifact-1",
  "contractName": "UserStorageData",
  "sourceName": "contracts/storeUserData.sol",
  "abi": [
    {
      "inputs": [
        {
          "internalType": "address",
          "name": "poolAddress",
          "type": "address"
        },
        {
          "internalType": "address",
          "name": "tokenAddress0",
          "type": "address"
        },
        {
          "internalType": "address",
          "name": "tokenAddress1",
          "type": "address"
        }
      ],
      "name": "addToBlockchain",
      "outputs": [],
      "stateMutability": "nonpayable",
      "type": "function"
    },
    {
      "inputs": [],
      "name": "getAllTransactions",
      "outputs": [
        {
          "components": [
            {
              "internalType": "address",
              "name": "caller",
              "type": "address"
            },
            {
              "internalType": "address",
              "name": "poolAddress",
              "type": "address"
            },
            {
              "internalType": "address",
              "name": "tokenAddress0",
              "type": "address"
            },
            {
              "internalType": "address",
              "name": "tokenAddress1",
              "type": "address"
            }
          ],
          "internalType": "struct UserStorageData.TransactionStruck[]",
          "name": "",
          "type": "tuple[]"
        }
      ],
      "stateMutability": "view",
      "type": "function"
    }
  ],
  "bytecode": "0x608060405234801561001057600080fd5b50610408806100206000396000f3fe608060405234801561001057600080fd5b50600436106100365760003560e01c806327506f531461003b578063890cb4e914610059575b600080fd5b61004361006e565b6040516100509190610372565b60405180910390f35b61006c610067366004610259565b61010e565b005b60606000805480602002602001604051908101604052809291908181526020016000905b828210156101055760008481526020908190206040805160808101825260048602909201805473ffffffffffffffffffffffffffffffffffffffff908116845260018083015482168587015260028301548216938501939093526003909101541660608301529083529092019101610092565b50505050905090565b6040805160808101825233815273ffffffffffffffffffffffffffffffffffffffff948516602082019081529385169181019182529184166060830190815260008054600181018255908052925160049093027f290decd9548b62a8d60345a988386fc84ba6bc95484008f6362f93160ef3e563810180549487167fffffffffffffffffffffffff000000000000000000000000000000000000000095861617905593517f290decd9548b62a8d60345a988386fc84ba6bc95484008f6362f93160ef3e5648501805491871691851691909117905590517f290decd9548b62a8d60345a988386fc84ba6bc95484008f6362f93160ef3e56584018054918616918416919091179055517f290decd9548b62a8d60345a988386fc84ba6bc95484008f6362f93160ef3e5669092018054929093169116179055565b8035610253816103bb565b92915050565b60008060006060848603121561026e57600080fd5b600061027a8686610248565b935050602061028b86828701610248565b925050604061029c86828701610248565b9150509250925092565b60006102b28383610322565b505060800190565b6102c38161039d565b82525050565b60006102d482610390565b6102de8185610394565b93506102e98361038a565b8060005b8381101561031757815161030188826102a6565b975061030c8361038a565b9250506001016102ed565b509495945050505050565b8051608083019061033384826102ba565b50602082015161034660208501826102ba565b50604082015161035960408501826102ba565b50606082015161036c60608501826102ba565b50505050565b6020808252810161038381846102c9565b9392505050565b60200190565b5190565b90815260200190565b600073ffffffffffffffffffffffffffffffffffffffff8216610253565b6103c48161039d565b81146103cf57600080fd5b5056fea2646970667358221220d9e22f15e520d481062096f55ee9efd197dac8cf7fad3783397d0d991eac1f1764736f6c63430007060033",
  "linkReferences": {},
  "deployedLinkReferences": {}
}